{"abi":[{"type":"constructor","inputs":[],"stateMutability":"nonpayable"},{"type":"function","name":"getVerdict","inputs":[{"name":"_id","type":"uint256","internalType":"uint256"}],"outputs":[{"name":"","type":"tuple","internalType":"struct VeritasOracle.Verdict","components":[{"name":"questionHash","type":"bytes32","internalType":"bytes32"},{"name":"merkleRoot","type":"bytes32","internalType":"bytes32"},{"name":"pYes","type":"uint256","internalType":"uint256"},{"name":"pNo","type":"uint256","internalType":"uint256"},{"name":"pNull","type":"uint256","internalType":"uint256"},{"name":"fleissKappa","type":"uint256","internalType":"uint256"},{"name":"timestamp","type":"uint256","internalType":"uint256"}]}],"stateMutability":"view"},{"type":"function","name":"owner","inputs":[],"outputs":[{"name":"","type":"address","internalType":"address"}],"stateMutability":"view"},{"type":"function","name":"postVerdict","inputs":[{"name":"_questionHash","type":"bytes32","internalType":"bytes32"},{"name":"_merkleRoot","type":"bytes32","internalType":"bytes32"},{"name":"_pYes","type":"uint256","internalType":"uint256"},{"name":"_pNo","type":"uint256","internalType":"uint256"},{"name":"_pNull","type":"uint256","internalType":"uint256"},{"name":"_fleissKappa","type":"uint256","internalType":"uint256"}],"outputs":[{"name":"","type":"uint256","internalType":"uint256"}],"stateMutability":"nonpayable"},{"type":"function","name":"verdictCount","inputs":[],"outputs":[{"name":"","type":"uint256","internalType":"uint256"}],"stateMutability":"view"},{"type":"function","name":"verdicts","inputs":[{"name":"","type":"uint256","internalType":"uint256"}],"outputs":[{"name":"questionHash","type":"bytes32","internalType":"bytes32"},{"name":"merkleRoot","type":"bytes32","internalType":"bytes32"},{"name":"pYes","type":"uint256","internalType":"uint256"},{"name":"pNo","type":"uint256","internalType":"uint256"},{"name":"pNull","type":"uint256","internalType":"uint256"},{"name":"fleissKappa","type":"uint256","internalType":"uint256"},{"name":"timestamp","type":"uint256","internalType":"uint256"}],"stateMutability":"view"},{"type":"event","name":"VerdictPosted","inputs":[{"name":"id","type":"uint256","indexed":true,"internalType":"uint256"},{"name":"questionHash","type":"bytes32","indexed":false,"internalType":"bytes32"},{"name":"merkleRoot","type":"bytes32","indexed":false,"internalType":"bytes32"},{"name":"pYes","type":"uint256","indexed":false,"internalType":"uint256"},{"name":"pNo","type":"uint256","indexed":false,"internalType":"uint256"},{"name":"pNull","type":"uint256","indexed":false,"internalType":"uint256"},{"name":"timestamp","type":"uint256","indexed":false,"internalType":"uint256"}],"anonymous":false}],"bytecode":{"object":"0x6080604052348015600e575f5ffd5b503360015f6101000a81548173ffffffffffffffffffffffffffffffffffffffff021916908373ffffffffffffffffffffffffffffffffffffffff1602179055506107fa8061005c5f395ff3fe608060405234801561000f575f5ffd5b5060043610610055575f3560e01c806333f3e74b146100595780633e0204fe146100895780635c9a3d0b146100bf57806364a8cbe7146100ef5780638da5cb5b1461010d575b5f5ffd5b610073600480360381019061006e919061041a565b61012b565b60405161008091906104f8565b60405180910390f35b6100a3600480360381019061009e919061041a565b6101a9565b6040516100b6979695949392919061052f565b60405180910390f35b6100d960048036038101906100d491906105c6565b6101f5565b6040516100e6919061064f565b60405180910390f35b6100f761037d565b604051610104919061064f565b60405180910390f35b610115610388565b60405161012291906106a7565b60405180910390f35b6101336103ad565b5f8281548110610146576101456106c0565b5b905f5260205f2090600702016040518060e00160405290815f820154815260200160018201548152602001600282015481526020016003820154815260200160048201548152602001600582015481526020016006820154815250509050919050565b5f81815481106101b7575f80fd5b905f5260205f2090600702015f91509050805f0154908060010154908060020154908060030154908060040154908060050154908060060154905087565b5f60015f9054906101000a900473ffffffffffffffffffffffffffffffffffffffff1673ffffffffffffffffffffffffffffffffffffffff163373ffffffffffffffffffffffffffffffffffffffff1614610285576040517f08c379a000000000000000000000000000000000000000000000000000000000815260040161027c90610747565b60405180910390fd5b5f5f8054905090505f6040518060e001604052808a815260200189815260200188815260200187815260200186815260200185815260200142815250908060018154018082558091505060019003905f5260205f2090600702015f909190919091505f820151815f01556020820151816001015560408201518160020155606082015181600301556080820151816004015560a0820151816005015560c082015181600601555050807fdeb4719347e05e6992cfc61eec40c0b91d36fc89b73545868d26fb6cdb351eb989898989894260405161036796959493929190610765565b60405180910390a2809150509695505050505050565b5f5f80549050905090565b60015f9054906101000a900473ffffffffffffffffffffffffffffffffffffffff1681565b6040518060e001604052805f81526020015f81526020015f81526020015f81526020015f81526020015f81526020015f81525090565b5f5ffd5b5f819050919050565b6103f9816103e7565b8114610403575f5ffd5b50565b5f81359050610414816103f0565b92915050565b5f6020828403121561042f5761042e6103e3565b5b5f61043c84828501610406565b91505092915050565b5f819050919050565b61045781610445565b82525050565b610466816103e7565b82525050565b60e082015f8201516104805f85018261044e565b506020820151610493602085018261044e565b5060408201516104a6604085018261045d565b5060608201516104b9606085018261045d565b5060808201516104cc608085018261045d565b5060a08201516104df60a085018261045d565b5060c08201516104f260c085018261045d565b50505050565b5f60e08201905061050b5f83018461046c565b92915050565b61051a81610445565b82525050565b610529816103e7565b82525050565b5f60e0820190506105425f83018a610511565b61054f6020830189610511565b61055c6040830188610520565b6105696060830187610520565b6105766080830186610520565b61058360a0830185610520565b61059060c0830184610520565b98975050505050505050565b6105a581610445565b81146105af575f5ffd5b50565b5f813590506105c08161059c565b92915050565b5f5f5f5f5f5f60c087890312156105e0576105df6103e3565b5b5f6105ed89828a016105b2565b96505060206105fe89828a016105b2565b955050604061060f89828a01610406565b945050606061062089828a01610406565b935050608061063189828a01610406565b92505060a061064289828a01610406565b9150509295509295509295565b5f6020820190506106625f830184610520565b92915050565b5f73ffffffffffffffffffffffffffffffffffffffff82169050919050565b5f61069182610668565b9050919050565b6106a181610687565b82525050565b5f6020820190506106ba5f830184610698565b92915050565b7f4e487b71000000000000000000000000000000000000000000000000000000005f52603260045260245ffd5b5f82825260208201905092915050565b7f4e6f74206f776e657200000000000000000000000000000000000000000000005f82015250565b5f6107316009836106ed565b915061073c826106fd565b602082019050919050565b5f6020820190508181035f83015261075e81610725565b9050919050565b5f60c0820190506107785f830189610511565b6107856020830188610511565b6107926040830187610520565b61079f6060830186610520565b6107ac6080830185610520565b6107b960a0830184610520565b97965050505050505056fea264697066735822122099a2b6053d97f1033edbb3eb5b5637b6215c4593d5ef5d6c825005732fb4207b64736f6c63430008210033","linkReferences":{}},"methodIdentifiers":{"getVerdict(uint256)":"33f3e74b","owner()":"8da5cb5b","postVerdict(bytes32,bytes32,uint256,uint256,uint256,uint256)":"5c9a3d0b","verdictCount()":"64a8cbe7","verdicts(uint256)":"3e0204fe"},"id":0}